:100000000C942A000C9447000C9447000C94470071
:100010000C9447000C9447000C9447000C94470044
:100020000C9447000C9447000C9458020C94470021
:100030000C9447000C94C8020C9403030C944700E2
:100040000C9447000C9447000C9447000C94470014
:100050000C94470011241FBECFE5D8E0DEBFCDBF12
:1000600011E0A0E6B0E0EAE1FDE002C005900D92EB
:10007000A63EB107D9F722E0A6EEB1E001C01D927D
:10008000AA37B207E1F70E94BC000C948B060C94CF
:10009000000084E886B980E487B9369A3699FECFA5
:1000A00084B195B1089597B1907E8F71892B87B9EE
:1000B000369A3699FECF84B195B1089587EE81BB0B
:1000C00088E182BB089592B321E030E002C0220FA4
:1000D000331F8A95E2F7292722BB089520B330E029
:1000E000A90102C0559547958A95E2F7CA0181702A
:1000F0000895FC0110827583648373836283418356
:10010000478346830895FC01908181819817B8F454
:10011000A481B5819D012F5F3F4F6C9387818150F2
:1001200019F48181281B31098783358324839FB784
:10013000F89480818F5F80839FBF81E0089580E085
:1001400008958AEE8CBF12BE8DE083BF89B78260AE
:1001500089BF089578940E94490060E07BE480E0C4
:1001600090E00E946F029093E9018093E8010E9461
:100170005E000E94A1000895CF93DF93CDB7DEB754
:10018000C454D1090FB6F894DEBF0FBECDBF0E9494
:10019000AA002FEF63E284EF215060408040E1F736
:1001A00000C0000086E1E0E6F0E0DE01119601907B
:1001B0000D928A95E1F7CE0101960E94B3029FEF5E
:1001C00023ED60E3915020406040E1F700C0000063
:1001D0008AE2E6E7F0E0DE01119601900D928A9541
:1001E000E1F7CE0101960E94B3028FEF93ED20E379
:1001F000815090402040E1F700C0000009C08EE32C
:10020000E0EAF0E0DE01119601900D928A95E1F7A7
:1002100083E00E946E00813091F3CE0101960E942E
:10022000B3026FEF83ED90E3615080409040E1F7BF
:1002300000C0000083E00E946E008130D9F381E2AB
:10024000EEEDF0E0DE01119601900D928A95E1F756
:10025000CE0101960E94B3022FEF60E782E02150A9
:1002600060408040E1F700C0000086E00E9453003B
:100270007C0188E3EFEFF0E0DE01119601900D9232
:100280008A95E1F7CE0101960E94B3029FEF23ED1C
:1002900060E3915020406040E1F700C0000083E03F
:1002A0000E946E008130D9F385E2E7E3F1E08E0130
:1002B0000F5F1F4FD80101900D928A95E1F7C80199
:1002C0000E94B3028FEF90E722E0815090402040DF
:1002D000E1F700C0000086E00E9453006C0181E15C
:1002E000ECE5F1E0D80101900D928A95E1F7C801A3
:1002F0000E94B3026FEF80E792E06150804090402F
:10030000E1F700C0000026014E185F08052C000C24
:100310006608770860EA76E881E090E0A301920140
:100320000E946003822E932EB42EA52E22962FAF0C
:10033000229723963FAF239724964FAF2497259675
:100340005FAF2597D70120E639E74EEF5FEF0E94B8
:100350008A03A30192010E946003422E532E642E51
:10036000752E6FEF83ED90E3615080409040E1F790
:1003700000C00000AF92BF929F928F925F934F9305
:100380003F932F93DF92CF92FF92EF928DE691E011
:100390009F938F931F930F930E94A103C8010E9404
:1003A000B3022FEF60E782E0215060408040E1F728
:1003B00000C000000FB6F894DEBF0FBECDBFE12C29
:1003C000F12C0F2EF4E98F2EF1E09F2EF02D0F2E41
:1003D000FEE22F2EF02D87E00E9463009FEFE91AC6
:1003E000F90A86E00E945300C82ED92EA090E6019B
:1003F000B090E70184E00E946E00382E83E00E94F6
:100400006E00BF92AF921F923F921F928F93DF9226
:10041000CF92FF92EF929F928F921F930F930E9421
:10042000A103C8010E94B3022FEF63ED80E32150C6
:1004300060408040E1F700C00000AC2DBD2D229649
:100440002FAD229723963FAD239724964FAD249747
:1004500025965FAD25970E947F03640D751D861D4F
:10046000971D24E630E040E050E00E9460035F9377
:100470004F933F932F9381EC91E09F938F931F9322
:100480000F930E94A1038A8D8B8F2A8EC8010E9430
:10049000B3026FEF89E698E1615080409040E1F748
:1004A00000C000000FB6F894DEBF0FBECDBF93CFE3
:1004B0001F920F920FB60F9211248F939F938091EA
:1004C000E6019091E70101969093E7018093E601A0
:1004D0009F918F910F900FBE0F901F901895CF9303
:1004E000CFB7DC01CB01880F991FAA1FBB1F880F54
:1004F000991FAA1FBB1F9C01AD01220F331F441F70
:10050000551F220F331F441F551F60E074E284EF14
:1005100090E00E943E032150310929B9F89488E9FE
:100520008AB986E880BD8CB15F99FDCF80EC8BB92C
:10053000CFBF40E46AEE71E082E392E00E9479006E
:1005400040E46AE372E08AE292E00E9479008AE283
:1005500092E0CF910895682F8AE292E00E94830092
:10056000559A90E008950F931F93CF93DF93EC017A
:100570008E018881882339F00E94AB022196F80110
:1005800080818111F5CFDF91CF911F910F91089557
:100590001F920F920FB60F9211242F933F934F93F8
:1005A0008F939F93AF93BF93EF93FF934CB1E2E38D
:1005B000F2E0908181819817C0F4A481B5819D01FA
:1005C0002F5F3F4F4C938781815021F480913302FC
:1005D000281B3109E2E3F2E08783358324839FB748
:1005E000F89480818F5F80839FBFFF91EF91BF91CF
:1005F000AF919F918F914F913F912F910F900FBE8F
:100600000F901F9018951F920F920FB60F92112402
:100610002F933F938F939F93AF93BF93EF93FF934A
:1006200080912A028823E1F0EAE2F2E0A281B3811C
:100630009D012F5F3F4F9C918681815021F48091D5
:100640002B02281B3109EAE2F2E0338322838683FE
:100650002FB7F8948081815080832FBF9CB901C04F
:100660005598FF91EF91BF91AF919F918F913F91DD
:100670002F910F900FBE0F901F901895A1E21A2E88
:10068000AA1BBB1BFD010DC0AA1FBB1FEE1FFF1F36
:10069000A217B307E407F50720F0A21BB30BE40B86
:1006A000F50B661F771F881F991F1A9469F76095CD
:1006B0007095809590959B01AC01BD01CF01089587
:1006C000052E97FB1EF400940E94770357FD07D078
:1006D0000E943E0307FC03D04EF40C947703509520
:1006E0004095309521953F4F4F4F5F4F089590951E
:1006F0008095709561957F4F8F4F9F4F08950E9411
:100700009203A59F900DB49F900DA49F800D911D05
:1007100011240895B7FF0C947F030E947F03821B6E
:10072000930B0895A29FB001B39FC001A39F700DCA
:10073000811D1124911DB29F700D811D1124911DE9
:100740000895AEE0B0E0E7EAF3E00C9462060D89AC
:100750001E8986E08C831A8309838FEF9FE79E832F
:100760008D83AE01475E5F4F6F89788DCE01019614
:100770000E94C303EF81F885E00FF11F10822E96CF
:10078000E4E00C947E06ABE0B0E0E9ECF3E00C941E
:1007900054066C017B018A01FC0117821682838159
:1007A00081FFCCC1CE0101963C01F6019381F70196
:1007B00093FD859193FF81917F01882309F4BAC14C
:1007C000853239F493FD859193FF81917F018532C4
:1007D00029F4B60190E00E94BA05E7CF912C212CB4
:1007E000312CFFE1F315D8F08B3279F038F48032F8
:1007F00079F08332A1F4232D20611DC08D3261F088
:10080000803369F4232D216016C0832D8260382E39
:10081000E32DE4603E2E2AC0F32DF8601DC037FCA6
:100820002DC020ED280F2A3040F08E32B9F436FC6E
:1008300081C1232D2064322E19C036FE06C08AE005
:10084000989E200D1124922E11C0EAE02E9E200DBC
:100850001124222EF32DF0623F2E08C08C3621F495
:10086000832D8068382E02C0883641F4F70193FD4D
:10087000859193FF81917F018111B3CF982F9F7D47
:100880009554933028F40C5F1F4F9FE399830DC05C
:10089000833631F0833771F0833509F059C021C0B8
:1008A000F801808189830E5F1F4F88248394912CE7
:1008B000530113C02801F2E04F0E511CF801A08033
:1008C000B18036FE03C0692D70E002C06FEF7FEF8C
:1008D000C5010E94AF054C018201F32DFF773F2E29
:1008E00016C0280122E0420E511CF801A080B18000
:1008F00036FE03C0692D70E002C06FEF7FEFC501C7
:100900000E94A4054C01F32DF0683F2E820133FCB8
:100910001BC0822D90E088169906B0F4B60180E2E3
:1009200090E00E94BA052A94F4CFF50137FC859136
:1009300037FE81915F01B60190E00E94BA05211057
:100940002A9421E0821A91088114910471F7E8C079
:10095000843611F0893641F5F80137FE07C0608111
:100960007181828193810C5F1F4F08C0608171810A
:10097000072E000C880B990B0E5F1F4FF32DFF768F
:100980003F2E97FF09C090958095709561957F4F98
:100990008F4F9F4FF0683F2E2AE030E0A3010E9466
:1009A000F605882E861845C0853731F4232D2F7E15
:1009B000B22E2AE030E025C0932D997FB92E8F36D4
:1009C000C1F018F4883579F0B5C0803719F0883750
:1009D00021F0B0C0E92FE061BE2EB4FE0DC0FB2DAA
:1009E000F460BF2E09C034FE0AC0292F2660B22E43
:1009F00006C028E030E005C020E130E002C020E180
:100A000032E0F801B7FE07C0608171818281938175
:100A10000C5F1F4F06C06081718180E090E00E5F27
:100A20001F4FA3010E94F605882E8618FB2DFF7725
:100A30003F2E36FE0DC0232D2E7FA22E891458F492
:100A400034FE0BC032FC09C0832D8E7EA82E05C05B
:100A5000B82CA32C03C0B82C01C0B92CA4FE0FC025
:100A6000FE01E80DF11D8081803321F49A2D997EDD
:100A7000A92E09C0A2FE06C0B394B39404C08A2D67
:100A8000867809F0B394A3FC11C0A0FE06C0B2148E
:100A900088F4280C922C9B180EC0B21460F4B60196
:100AA00080E290E00E94BA05B394F7CFB21418F434
:100AB0002B1802C0982C212CA4FE10C0B60180E394
:100AC00090E00E94BA05A2FE17C0A1FC03C088E70F
:100AD00090E002C088E590E0B6010CC08A2D8678CF
:100AE00059F0A1FE02C08BE201C080E2A7FC8DE2BA
:100AF000B60190E00E94BA05891438F4B60180E38B
:100B000090E00E94BA059A94F7CF8A94F301E80D19
:100B1000F11D8081B60190E00E94BA058110F5CFE9
:100B2000222009F442CEB60180E290E00E94BA058C
:100B30002A94F6CFF6018681978102C08FEF9FEF4E
:100B40002B96E2E10C947006FC0105906150704018
:100B50000110D8F7809590958E0F9F1F0895FC0186
:100B60006150704001900110D8F7809590958E0FDC
:100B70009F1F08950F931F93CF93DF93FB01238152
:100B800021FD03C08FEF9FEF2CC022FF16C04681CE
:100B90005781248135814217530744F4A081B181E4
:100BA0009D012F5F3F4F318320838C9326813781B6
:100BB0002F5F3F4F3783268314C08B01EC01FB016D
:100BC0000084F185E02D0995892BE1F6D801169670
:100BD0008D919C911797019617969C938E931697DB
:100BE000CE01DF91CF911F910F910895FA01AA27AD
:100BF000283051F1203181F1E8946F936E7F6E5F60
:100C00007F4F8F4F9F4FAF4FB1E03ED0B4E03CD00D
:100C1000670F781F891F9A1FA11D680F791F8A1FF0
:100C2000911DA11D6A0F711D811D911DA11D20D057
:100C300009F468943F912AE0269F11243019305D11
:100C40003193DEF6CF010895462F4770405D419302
:100C5000B3E00FD0C9F7F6CF462F4F70405D4A334F
:100C600018F0495D31FD4052419302D0A9F7EACF17
:100C7000B4E0A6959795879577956795BA95C9F746
:100C800000976105710508959B01AC010A2E069439
:100C90005795479537952795BA95C9F7620F731FF2
:100CA000841F951FA01D08952F923F924F925F922F
:100CB0006F927F928F929F92AF92BF92CF92DF926C
:100CC000EF92FF920F931F93CF93DF93CDB7DEB7D1
:100CD000CA1BDB0B0FB6F894DEBF0FBECDBF099465
:100CE0002A88398848885F846E847D848C849B84BC
:100CF000AA84B984C884DF80EE80FD800C811B81CA
:100D0000AA81B981CE0FD11D0FB6F894DEBF0FBEF8
:0A0D1000CDBFED010895F894FFCF68
:100D1A000D0A48656C6C6F2074656D70657261743C
:100D2A007572650D0A00507265737320627574746A
:100D3A006F6E20746F207374617274206175746FA2
:100D4A002063616C6962726174696F6E2E0D0A00AC
:100D5A004175746F2063616C6962726174696F6E48
:100D6A002E205075742073656E736F7220696E2021
:100D7A0069636520776174657220616E64207072A0
:100D8A0065737320627574746F6E2E0D0A00526556
:100D9A006164696E6720766F6C7461676520666F3F
:100DAA0072204963652057617465722E0D0A0050DE
:100DBA007574207468652073656E736F7220696E2E
:100DCA0020626F696C696E67207761746572206151
:100DDA006E6420707265737320746865206275741E
:100DEA00746F6E2E0D0A0052656164696E67207613
:100DFA006F6C7461676520666F7220626F696C69D7
:100E0A006E672077617465722E0D0A0043616C6902
:100E1A0062726174696E672E2E2E0D0A0043616C30
:100E2A006962726174696F6E20636F6D706C65744C
:100E3A00656420256420256420256C6420256C6463
:100E4A00210D0A006D6561737572656D656E74209A
:100E5A006E723A202564204144433A20256420508A
:100E6A006F7274733A2025642025642025640D0A64
:100E7A00004D656173757265642074656D70657285
:100E8A0061747572653A202530346C64202064657B
:060E9A0067430D0A000091
:00000001FF
